{
  "contractName": "Vesting",
  "abi": [
    {
      "inputs": [
        {
          "internalType": "address",
          "name": "_tokenAddress",
          "type": "address"
        }
      ],
      "stateMutability": "nonpayable",
      "type": "constructor"
    },
    {
      "anonymous": false,
      "inputs": [
        {
          "indexed": true,
          "internalType": "address",
          "name": "beneficiary",
          "type": "address"
        },
        {
          "indexed": false,
          "internalType": "uint256",
          "name": "totalAmount",
          "type": "uint256"
        },
        {
          "indexed": false,
          "internalType": "uint256",
          "name": "start",
          "type": "uint256"
        },
        {
          "indexed": false,
          "internalType": "uint256",
          "name": "cliff",
          "type": "uint256"
        },
        {
          "indexed": false,
          "internalType": "uint256",
          "name": "duration",
          "type": "uint256"
        }
      ],
      "name": "VestingInitialized",
      "type": "event"
    },
    {
      "inputs": [
        {
          "internalType": "address",
          "name": "",
          "type": "address"
        }
      ],
      "name": "hasVestingSchedule",
      "outputs": [
        {
          "internalType": "bool",
          "name": "",
          "type": "bool"
        }
      ],
      "stateMutability": "view",
      "type": "function"
    },
    {
      "inputs": [],
      "name": "token",
      "outputs": [
        {
          "internalType": "contract IERC20",
          "name": "",
          "type": "address"
        }
      ],
      "stateMutability": "view",
      "type": "function"
    },
    {
      "inputs": [
        {
          "internalType": "address",
          "name": "",
          "type": "address"
        }
      ],
      "name": "vestingSchedules",
      "outputs": [
        {
          "internalType": "uint256",
          "name": "totalAmount",
          "type": "uint256"
        },
        {
          "internalType": "uint256",
          "name": "start",
          "type": "uint256"
        },
        {
          "internalType": "uint256",
          "name": "cliff",
          "type": "uint256"
        },
        {
          "internalType": "uint256",
          "name": "duration",
          "type": "uint256"
        },
        {
          "internalType": "uint256",
          "name": "released",
          "type": "uint256"
        },
        {
          "internalType": "bool",
          "name": "isRevocable",
          "type": "bool"
        }
      ],
      "stateMutability": "view",
      "type": "function"
    },
    {
      "inputs": [
        {
          "internalType": "address",
          "name": "beneficiary",
          "type": "address"
        },
        {
          "internalType": "uint256",
          "name": "totalAmount",
          "type": "uint256"
        },
        {
          "internalType": "uint256",
          "name": "start",
          "type": "uint256"
        },
        {
          "internalType": "uint256",
          "name": "cliff",
          "type": "uint256"
        },
        {
          "internalType": "uint256",
          "name": "duration",
          "type": "uint256"
        }
      ],
      "name": "initializeVesting",
      "outputs": [],
      "stateMutability": "nonpayable",
      "type": "function"
    }
  ],
  "bytecode": "0x608060405234801561001057600080fd5b50604051610a43380380610a438339818101604052810190610032919061008d565b806000806101000a81548173ffffffffffffffffffffffffffffffffffffffff021916908373ffffffffffffffffffffffffffffffffffffffff160217905550506100ff565b600081519050610087816100e8565b92915050565b60006020828403121561009f57600080fd5b60006100ad84828501610078565b91505092915050565b60006100c1826100c8565b9050919050565b600073ffffffffffffffffffffffffffffffffffffffff82169050919050565b6100f1816100b6565b81146100fc57600080fd5b50565b6109358061010e6000396000f3fe608060405234801561001057600080fd5b506004361061004c5760003560e01c80635d3056b914610051578063b4a388931461006d578063fc0c546a1461009d578063fdb20ccb146100bb575b600080fd5b61006b600480360381019061006691906104e3565b6100f0565b005b610087600480360381019061008291906104ba565b6103ee565b604051610094919061069c565b60405180910390f35b6100a561040e565b6040516100b291906106b7565b60405180910390f35b6100d560048036038101906100d091906104ba565b610432565b6040516100e796959493929190610757565b60405180910390f35b600260008673ffffffffffffffffffffffffffffffffffffffff1673ffffffffffffffffffffffffffffffffffffffff16815260200190815260200160002060009054906101000a900460ff161561017d576040517f08c379a0000000000000000000000000000000000000000000000000000000008152600401610174906106d2565b60405180910390fd5b60008054906101000a900473ffffffffffffffffffffffffffffffffffffffff1673ffffffffffffffffffffffffffffffffffffffff166323b872dd3330876040518463ffffffff1660e01b81526004016101da93929190610665565b602060405180830381600087803b1580156101f457600080fd5b505af1158015610208573d6000803e3d6000fd5b505050506040513d601f19601f8201168201806040525081019061022c919061055a565b61026b576040517f08c379a0000000000000000000000000000000000000000000000000000000008152600401610262906106f2565b60405180910390fd5b6040518060c00160405280858152602001848152602001838561028e91906107c9565b81526020018281526020016000815260200160011515815250600160008773ffffffffffffffffffffffffffffffffffffffff1673ffffffffffffffffffffffffffffffffffffffff168152602001908152602001600020600082015181600001556020820151816001015560408201518160020155606082015181600301556080820151816004015560a08201518160050160006101000a81548160ff0219169083151502179055509050506001600260008773ffffffffffffffffffffffffffffffffffffffff1673ffffffffffffffffffffffffffffffffffffffff16815260200190815260200160002060006101000a81548160ff0219169083151502179055508473ffffffffffffffffffffffffffffffffffffffff167f7f826a8783cd305962e7c53102d479b26581d971a80b23456efdda607c36d043858585856040516103df9493929190610712565b60405180910390a25050505050565b60026020528060005260406000206000915054906101000a900460ff1681565b60008054906101000a900473ffffffffffffffffffffffffffffffffffffffff1681565b60016020528060005260406000206000915090508060000154908060010154908060020154908060030154908060040154908060050160009054906101000a900460ff16905086565b60008135905061048a816108ba565b92915050565b60008151905061049f816108d1565b92915050565b6000813590506104b4816108e8565b92915050565b6000602082840312156104cc57600080fd5b60006104da8482850161047b565b91505092915050565b600080600080600060a086880312156104fb57600080fd5b60006105098882890161047b565b955050602061051a888289016104a5565b945050604061052b888289016104a5565b935050606061053c888289016104a5565b925050608061054d888289016104a5565b9150509295509295909350565b60006020828403121561056c57600080fd5b600061057a84828501610490565b91505092915050565b61058c8161081f565b82525050565b61059b81610831565b82525050565b6105aa81610867565b82525050565b60006105bd6034836107b8565b91507f56657374696e67207363686564756c6520616c7265616479206578697374732060008301527f666f7220746869732062656e65666963696172790000000000000000000000006020830152604082019050919050565b60006106236015836107b8565b91507f546f6b656e207472616e73666572206661696c656400000000000000000000006000830152602082019050919050565b61065f8161085d565b82525050565b600060608201905061067a6000830186610583565b6106876020830185610583565b6106946040830184610656565b949350505050565b60006020820190506106b16000830184610592565b92915050565b60006020820190506106cc60008301846105a1565b92915050565b600060208201905081810360008301526106eb816105b0565b9050919050565b6000602082019050818103600083015261070b81610616565b9050919050565b60006080820190506107276000830187610656565b6107346020830186610656565b6107416040830185610656565b61074e6060830184610656565b95945050505050565b600060c08201905061076c6000830189610656565b6107796020830188610656565b6107866040830187610656565b6107936060830186610656565b6107a06080830185610656565b6107ad60a0830184610592565b979650505050505050565b600082825260208201905092915050565b60006107d48261085d565b91506107df8361085d565b9250827fffffffffffffffffffffffffffffffffffffffffffffffffffffffffffffffff038211156108145761081361088b565b5b828201905092915050565b600061082a8261083d565b9050919050565b60008115159050919050565b600073ffffffffffffffffffffffffffffffffffffffff82169050919050565b6000819050919050565b600061087282610879565b9050919050565b60006108848261083d565b9050919050565b7f4e487b7100000000000000000000000000000000000000000000000000000000600052601160045260246000fd5b6108c38161081f565b81146108ce57600080fd5b50565b6108da81610831565b81146108e557600080fd5b50565b6108f18161085d565b81146108fc57600080fd5b5056fea264697066735822122020fb4c4f9b3108fb5bc4fdb5052878678e6c078c3b74673e4821fe0d50ba1e8f64736f6c63430008000033",
  "immutableReferences": {},
  "source": "pragma solidity ^0.8.0;\r\n\r\ninterface IERC20 {\r\n    function transferFrom(address sender, address recipient, uint256 amount) external returns (bool);\r\n    function balanceOf(address account) external view returns (uint256);\r\n}\r\n\r\ncontract Vesting {\r\n    IERC20 public token;\r\n    \r\n    struct VestingSchedule {\r\n        uint256 totalAmount;\r\n        uint256 start;\r\n        uint256 cliff;\r\n        uint256 duration;\r\n        uint256 released;\r\n        bool isRevocable;\r\n    }\r\n\r\n    mapping(address => VestingSchedule) public vestingSchedules;\r\n    mapping(address => bool) public hasVestingSchedule;\r\n\r\n    event VestingInitialized(address indexed beneficiary, uint256 totalAmount, uint256 start, uint256 cliff, uint256 duration);\r\n\r\n    constructor(address _tokenAddress) {\r\n        token = IERC20(_tokenAddress);\r\n    }\r\n\r\n    function initializeVesting(\r\n        address beneficiary,\r\n        uint256 totalAmount,\r\n        uint256 start,\r\n        uint256 cliff,\r\n        uint256 duration\r\n    ) public {\r\n        require(!hasVestingSchedule[beneficiary], \"Vesting schedule already exists for this beneficiary\");\r\n\r\n        // Transfer tokens to the contract\r\n        require(token.transferFrom(msg.sender, address(this), totalAmount), \"Token transfer failed\");\r\n\r\n        vestingSchedules[beneficiary] = VestingSchedule({\r\n            totalAmount: totalAmount,\r\n            start: start,\r\n            cliff: start + cliff,\r\n            duration: duration,\r\n            released: 0,\r\n            isRevocable: true\r\n        });\r\n\r\n        hasVestingSchedule[beneficiary] = true;\r\n\r\n        emit VestingInitialized(beneficiary, totalAmount, start, cliff, duration);\r\n    }\r\n}\r\n",
  "sourcePath": "C:\\Users\\ngyue\\Downloads\\klaytn_smart_contract\\contracts\\Vesting.sol",
  "compiler": {
    "name": "solc",
    "version": "0.8.0+commit.c7dfd78e.Emscripten.clang"
  },
  "schemaVersion": "3.4.16",
  "updatedAt": "2024-07-01T15:43:49.997Z",
  "devdoc": {
    "kind": "dev",
    "methods": {},
    "version": 1
  },
  "userdoc": {
    "kind": "user",
    "methods": {},
    "version": 1
  }
}