{
  "contractName": "VestedLaunchpad",
  "abi": [
    {
      "inputs": [],
      "stateMutability": "nonpayable",
      "type": "constructor"
    },
    {
      "inputs": [],
      "name": "campaignCount",
      "outputs": [
        {
          "internalType": "uint256",
          "name": "",
          "type": "uint256"
        }
      ],
      "stateMutability": "view",
      "type": "function"
    },
    {
      "inputs": [
        {
          "internalType": "uint256",
          "name": "",
          "type": "uint256"
        }
      ],
      "name": "campaigns",
      "outputs": [
        {
          "internalType": "string",
          "name": "name",
          "type": "string"
        },
        {
          "internalType": "string",
          "name": "description",
          "type": "string"
        },
        {
          "internalType": "address payable",
          "name": "vendorAddress",
          "type": "address"
        },
        {
          "internalType": "uint256",
          "name": "suggestedContribution",
          "type": "uint256"
        },
        {
          "internalType": "string",
          "name": "tokenType",
          "type": "string"
        },
        {
          "internalType": "uint256",
          "name": "expirationDate",
          "type": "uint256"
        }
      ],
      "stateMutability": "view",
      "type": "function"
    },
    {
      "inputs": [
        {
          "internalType": "string",
          "name": "name",
          "type": "string"
        },
        {
          "internalType": "string",
          "name": "description",
          "type": "string"
        },
        {
          "internalType": "address payable",
          "name": "vendorAddress",
          "type": "address"
        },
        {
          "internalType": "uint256",
          "name": "suggestedContribution",
          "type": "uint256"
        },
        {
          "internalType": "string",
          "name": "tokenType",
          "type": "string"
        },
        {
          "internalType": "uint256",
          "name": "expirationDate",
          "type": "uint256"
        }
      ],
      "name": "createCampaign",
      "outputs": [],
      "stateMutability": "nonpayable",
      "type": "function"
    },
    {
      "inputs": [
        {
          "internalType": "uint256",
          "name": "campaignId",
          "type": "uint256"
        }
      ],
      "name": "contribute",
      "outputs": [],
      "stateMutability": "payable",
      "type": "function"
    }
  ],
  "bytecode": "0x608060405234801561001057600080fd5b506000600181905550610b44806100286000396000f3fe60806040526004361061003f5760003560e01c8063141961bc146100445780637274e30d1461008657806376508699146100b1578063c1cbbca7146100da575b600080fd5b34801561005057600080fd5b5061006b600480360381019061006691906106d5565b6100f6565b60405161007d969594939291906107fb565b60405180910390f35b34801561009257600080fd5b5061009b6102ea565b6040516100a891906108b1565b60405180910390f35b3480156100bd57600080fd5b506100d860048036038101906100d39190610604565b6102f0565b005b6100f460048036038101906100ef91906106d5565b6103c9565b005b6000602052806000526040600020600091509050806000018054610119906109c7565b80601f0160208091040260200160405190810160405280929190818152602001828054610145906109c7565b80156101925780601f1061016757610100808354040283529160200191610192565b820191906000526020600020905b81548152906001019060200180831161017557829003601f168201915b5050505050908060010180546101a7906109c7565b80601f01602080910402602001604051908101604052809291908181526020018280546101d3906109c7565b80156102205780601f106101f557610100808354040283529160200191610220565b820191906000526020600020905b81548152906001019060200180831161020357829003601f168201915b5050505050908060020160009054906101000a900473ffffffffffffffffffffffffffffffffffffffff1690806003015490806004018054610261906109c7565b80601f016020809104026020016040519081016040528092919081815260200182805461028d906109c7565b80156102da5780601f106102af576101008083540402835291602001916102da565b820191906000526020600020905b8154815290600101906020018083116102bd57829003601f168201915b5050505050908060060154905086565b60015481565b600080600060015481526020019081526020016000209050868160000190805190602001906103209291906104cf565b50858160010190805190602001906103399291906104cf565b50848160020160006101000a81548173ffffffffffffffffffffffffffffffffffffffff021916908373ffffffffffffffffffffffffffffffffffffffff1602179055508381600301819055508281600401908051906020019061039e9291906104cf565b50818160060181905550600160008154809291906103bb906109f9565b919050555050505050505050565b600154811061040d576040517f08c379a000000000000000000000000000000000000000000000000000000000815260040161040490610871565b60405180910390fd5b60003411610450576040517f08c379a000000000000000000000000000000000000000000000000000000000815260040161044790610891565b60405180910390fd5b60008082815260200190815260200160002060020160009054906101000a900473ffffffffffffffffffffffffffffffffffffffff1673ffffffffffffffffffffffffffffffffffffffff166108fc349081150290604051600060405180830381858888f193505050501580156104cb573d6000803e3d6000fd5b5050565b8280546104db906109c7565b90600052602060002090601f0160209004810192826104fd5760008555610544565b82601f1061051657805160ff1916838001178555610544565b82800160010185558215610544579182015b82811115610543578251825591602001919060010190610528565b5b5090506105519190610555565b5090565b5b8082111561056e576000816000905550600101610556565b5090565b6000610585610580846108fd565b6108cc565b90508281526020810184848401111561059d57600080fd5b6105a8848285610985565b509392505050565b6000813590506105bf81610ae0565b92915050565b600082601f8301126105d657600080fd5b81356105e6848260208601610572565b91505092915050565b6000813590506105fe81610af7565b92915050565b60008060008060008060c0878903121561061d57600080fd5b600087013567ffffffffffffffff81111561063757600080fd5b61064389828a016105c5565b965050602087013567ffffffffffffffff81111561066057600080fd5b61066c89828a016105c5565b955050604061067d89828a016105b0565b945050606061068e89828a016105ef565b935050608087013567ffffffffffffffff8111156106ab57600080fd5b6106b789828a016105c5565b92505060a06106c889828a016105ef565b9150509295509295509295565b6000602082840312156106e757600080fd5b60006106f5848285016105ef565b91505092915050565b61070781610949565b82525050565b60006107188261092d565b6107228185610938565b9350610732818560208601610994565b61073b81610acf565b840191505092915050565b6000610753601783610938565b91507f43616d706169676e20646f6573206e6f742065786973740000000000000000006000830152602082019050919050565b6000610793602383610938565b91507f436f6e747269627574696f6e206d75737420626520677265617465722074686160008301527f6e203000000000000000000000000000000000000000000000000000000000006020830152604082019050919050565b6107f58161097b565b82525050565b600060c0820190508181036000830152610815818961070d565b90508181036020830152610829818861070d565b905061083860408301876106fe565b61084560608301866107ec565b8181036080830152610857818561070d565b905061086660a08301846107ec565b979650505050505050565b6000602082019050818103600083015261088a81610746565b9050919050565b600060208201905081810360008301526108aa81610786565b9050919050565b60006020820190506108c660008301846107ec565b92915050565b6000604051905081810181811067ffffffffffffffff821117156108f3576108f2610aa0565b5b8060405250919050565b600067ffffffffffffffff82111561091857610917610aa0565b5b601f19601f8301169050602081019050919050565b600081519050919050565b600082825260208201905092915050565b60006109548261095b565b9050919050565b600073ffffffffffffffffffffffffffffffffffffffff82169050919050565b6000819050919050565b82818337600083830152505050565b60005b838110156109b2578082015181840152602081019050610997565b838111156109c1576000848401525b50505050565b600060028204905060018216806109df57607f821691505b602082108114156109f3576109f2610a71565b5b50919050565b6000610a048261097b565b91507fffffffffffffffffffffffffffffffffffffffffffffffffffffffffffffffff821415610a3757610a36610a42565b5b600182019050919050565b7f4e487b7100000000000000000000000000000000000000000000000000000000600052601160045260246000fd5b7f4e487b7100000000000000000000000000000000000000000000000000000000600052602260045260246000fd5b7f4e487b7100000000000000000000000000000000000000000000000000000000600052604160045260246000fd5b6000601f19601f8301169050919050565b610ae981610949565b8114610af457600080fd5b50565b610b008161097b565b8114610b0b57600080fd5b5056fea26469706673582212205237fa520c7e801e949af1f3e0b68dd17e9fb79a516024b069aa008bf6031ffd64736f6c63430008000033",
  "immutableReferences": {},
  "source": "// contracts/VestedLaunchpad.sol\r\npragma solidity ^0.8.0;\r\n\r\ncontract VestedLaunchpad {\r\n    // Define state variables and functions here\r\n\r\n    struct Milestone {\r\n        string description;\r\n        uint256 fundReleasePercentage;\r\n    }\r\n\r\n    struct Campaign {\r\n        string name;\r\n        string description;\r\n        address payable vendorAddress;\r\n        uint256 suggestedContribution;\r\n        string tokenType;\r\n        Milestone[] milestones;\r\n        uint256 expirationDate;\r\n    }\r\n\r\n    mapping(uint256 => Campaign) public campaigns;\r\n    uint256 public campaignCount;\r\n\r\n    constructor() {\r\n        campaignCount = 0;\r\n    }\r\n\r\n    function createCampaign(\r\n        string memory name,\r\n        string memory description,\r\n        address payable vendorAddress,\r\n        uint256 suggestedContribution,\r\n        string memory tokenType,\r\n        uint256 expirationDate\r\n    ) public {\r\n        Campaign storage newCampaign = campaigns[campaignCount];\r\n        newCampaign.name = name;\r\n        newCampaign.description = description;\r\n        newCampaign.vendorAddress = vendorAddress;\r\n        newCampaign.suggestedContribution = suggestedContribution;\r\n        newCampaign.tokenType = tokenType;\r\n        newCampaign.expirationDate = expirationDate;\r\n        campaignCount++;\r\n    }\r\n\r\n    function contribute(uint256 campaignId) public payable {\r\n        require(campaignId < campaignCount, \"Campaign does not exist\");\r\n        require(msg.value > 0, \"Contribution must be greater than 0\");\r\n        campaigns[campaignId].vendorAddress.transfer(msg.value);\r\n    }\r\n}\r\n",
  "sourcePath": "C:\\Users\\ngyue\\Downloads\\klaytn_smart_contract\\contracts\\VestedLauchpad.sol",
  "compiler": {
    "name": "solc",
    "version": "0.8.0+commit.c7dfd78e.Emscripten.clang"
  },
  "schemaVersion": "3.4.16",
  "updatedAt": "2024-06-29T11:24:43.841Z",
  "devdoc": {
    "kind": "dev",
    "methods": {},
    "version": 1
  },
  "userdoc": {
    "kind": "user",
    "methods": {},
    "version": 1
  }
}